{
  "_format": "hh-sol-artifact-1",
  "contractName": "XStaker",
  "sourceName": "contracts/XStaker.sol",
  "abi": [
    {
      "inputs": [
        {
          "internalType": "address",
          "name": "_xTokenCoreAddress",
          "type": "address"
        }
      ],
      "stateMutability": "nonpayable",
      "type": "constructor"
    },
    {
      "anonymous": false,
      "inputs": [
        {
          "indexed": true,
          "internalType": "address",
          "name": "previousOwner",
          "type": "address"
        },
        {
          "indexed": true,
          "internalType": "address",
          "name": "newOwner",
          "type": "address"
        }
      ],
      "name": "OwnershipTransferred",
      "type": "event"
    },
    {
      "inputs": [
        {
          "internalType": "address",
          "name": "_stakeMasterAddress",
          "type": "address"
        }
      ],
      "name": "claimRewards",
      "outputs": [],
      "stateMutability": "nonpayable",
      "type": "function"
    },
    {
      "inputs": [
        {
          "internalType": "address",
          "name": "_stakeMasterAddress",
          "type": "address"
        }
      ],
      "name": "enrollStakeMaster",
      "outputs": [],
      "stateMutability": "nonpayable",
      "type": "function"
    },
    {
      "inputs": [],
      "name": "getContractAddress",
      "outputs": [
        {
          "internalType": "address",
          "name": "",
          "type": "address"
        }
      ],
      "stateMutability": "view",
      "type": "function"
    },
    {
      "inputs": [
        {
          "internalType": "address",
          "name": "_stakeMasterAddress",
          "type": "address"
        }
      ],
      "name": "getStakeMasterBalance",
      "outputs": [
        {
          "internalType": "uint256",
          "name": "",
          "type": "uint256"
        }
      ],
      "stateMutability": "view",
      "type": "function"
    },
    {
      "inputs": [
        {
          "internalType": "address",
          "name": "_stakeMasterAddress",
          "type": "address"
        }
      ],
      "name": "getStakers",
      "outputs": [
        {
          "components": [
            {
              "internalType": "address",
              "name": "stakerMasterAddress",
              "type": "address"
            },
            {
              "internalType": "bool",
              "name": "isStaking",
              "type": "bool"
            },
            {
              "internalType": "bool",
              "name": "lockperiod",
              "type": "bool"
            },
            {
              "internalType": "uint256",
              "name": "amountStaked",
              "type": "uint256"
            },
            {
              "internalType": "uint256",
              "name": "unclaimedRewards",
              "type": "uint256"
            },
            {
              "internalType": "uint256",
              "name": "durationOfStake",
              "type": "uint256"
            }
          ],
          "internalType": "struct XStaker.StakerData",
          "name": "",
          "type": "tuple"
        }
      ],
      "stateMutability": "view",
      "type": "function"
    },
    {
      "inputs": [],
      "name": "owner",
      "outputs": [
        {
          "internalType": "address",
          "name": "",
          "type": "address"
        }
      ],
      "stateMutability": "view",
      "type": "function"
    },
    {
      "inputs": [],
      "name": "renounceOwnership",
      "outputs": [],
      "stateMutability": "nonpayable",
      "type": "function"
    },
    {
      "inputs": [],
      "name": "rewardsPerHour",
      "outputs": [
        {
          "internalType": "uint256",
          "name": "",
          "type": "uint256"
        }
      ],
      "stateMutability": "view",
      "type": "function"
    },
    {
      "inputs": [
        {
          "internalType": "address",
          "name": "_stakeMasterAddress",
          "type": "address"
        },
        {
          "internalType": "uint256",
          "name": "_amount",
          "type": "uint256"
        }
      ],
      "name": "stake",
      "outputs": [],
      "stateMutability": "payable",
      "type": "function"
    },
    {
      "inputs": [
        {
          "internalType": "address",
          "name": "",
          "type": "address"
        }
      ],
      "name": "stakeMaster",
      "outputs": [
        {
          "internalType": "uint256",
          "name": "totalAmountStaked",
          "type": "uint256"
        }
      ],
      "stateMutability": "view",
      "type": "function"
    },
    {
      "inputs": [
        {
          "internalType": "address",
          "name": "",
          "type": "address"
        }
      ],
      "name": "stakeMasterEnrolled",
      "outputs": [
        {
          "internalType": "bool",
          "name": "",
          "type": "bool"
        }
      ],
      "stateMutability": "view",
      "type": "function"
    },
    {
      "inputs": [
        {
          "internalType": "uint256",
          "name": "",
          "type": "uint256"
        }
      ],
      "name": "stakeMasters",
      "outputs": [
        {
          "internalType": "address",
          "name": "",
          "type": "address"
        }
      ],
      "stateMutability": "view",
      "type": "function"
    },
    {
      "inputs": [
        {
          "internalType": "address",
          "name": "newOwner",
          "type": "address"
        }
      ],
      "name": "transferOwnership",
      "outputs": [],
      "stateMutability": "nonpayable",
      "type": "function"
    },
    {
      "inputs": [
        {
          "internalType": "address",
          "name": "_stakeMasterAddress",
          "type": "address"
        },
        {
          "internalType": "uint256",
          "name": "_amount",
          "type": "uint256"
        }
      ],
      "name": "unStake",
      "outputs": [],
      "stateMutability": "payable",
      "type": "function"
    },
    {
      "inputs": [
        {
          "internalType": "address",
          "name": "_xTokenCoreAddress",
          "type": "address"
        }
      ],
      "name": "updateCoreAddress",
      "outputs": [],
      "stateMutability": "nonpayable",
      "type": "function"
    },
    {
      "inputs": [
        {
          "internalType": "address",
          "name": "_stakeMasterAddress",
          "type": "address"
        }
      ],
      "name": "viewRewards",
      "outputs": [
        {
          "internalType": "uint256",
          "name": "",
          "type": "uint256"
        }
      ],
      "stateMutability": "view",
      "type": "function"
    },
    {
      "inputs": [],
      "name": "xTokenCoreAddress",
      "outputs": [
        {
          "internalType": "address",
          "name": "",
          "type": "address"
        }
      ],
      "stateMutability": "view",
      "type": "function"
    }
  ],
  "bytecode": "0x608060405261271060025534801561001657600080fd5b506040516111f13803806111f1833981016040819052610035916100b3565b61003e33610063565b600180546001600160a01b0319166001600160a01b03929092169190911790556100e1565b600080546001600160a01b038381166001600160a01b0319831681178455604051919092169283917f8be0079c531659141344cd1fd0a4f28419497f9722a3daafe3b4186f6b6457e09190a35050565b6000602082840312156100c4578081fd5b81516001600160a01b03811681146100da578182fd5b9392505050565b611101806100f06000396000f3fe60806040526004361061010e5760003560e01c80638e7271fa116100a5578063c590d5b511610074578063da40ef8011610059578063da40ef8014610417578063ef5cfb8c14610437578063f2fde38b1461045757600080fd5b8063c590d5b5146103e4578063d93938141461040457600080fd5b80638e7271fa1461037b5780639b06968314610391578063adc9772e146103b1578063c1d46f22146103c457600080fd5b80633b078eff116100e15780633b078eff146101e5578063715018a61461021257806379193610146102275780638da5cb5b1461035d57600080fd5b8063070f43351461011357806318ad85c01461015c57806332a2c5d01461019c578063364f9cf8146101c3575b600080fd5b34801561011f57600080fd5b5061014961012e366004610fb4565b6001600160a01b031660009081526005602052604090205490565b6040519081526020015b60405180910390f35b34801561016857600080fd5b5061018c610177366004610fb4565b60046020526000908152604090205460ff1681565b6040519015158152602001610153565b3480156101a857600080fd5b50305b6040516001600160a01b039091168152602001610153565b3480156101cf57600080fd5b506101e36101de366004610fb4565b610477565b005b3480156101f157600080fd5b50610149610200366004610fb4565b60056020526000908152604090205481565b34801561021e57600080fd5b506101e36104ae565b34801561023357600080fd5b50610304610242366004610fb4565b6040805160c081018252600080825260208201819052918101829052606081018290526080810182905260a0810191909152506001600160a01b0390811660009081526005602090815260408083203384526001908101835292819020815160c0810183528154958616815260ff600160a01b870481161515948201949094527501000000000000000000000000000000000000000000909504909216151590840152908101546060830152600281015460808301526003015460a082015290565b6040516101539190600060c0820190506001600160a01b038351168252602083015115156020830152604083015115156040830152606083015160608301526080830151608083015260a083015160a083015292915050565b34801561036957600080fd5b506000546001600160a01b03166101ab565b34801561038757600080fd5b5061014960025481565b34801561039d57600080fd5b506101ab6103ac366004611017565b6104c2565b6101e36103bf366004610fce565b6104ec565b3480156103d057600080fd5b506001546101ab906001600160a01b031681565b3480156103f057600080fd5b506101e36103ff366004610fb4565b610899565b6101e3610412366004610fce565b610976565b34801561042357600080fd5b50610149610432366004610fb4565b610c30565b34801561044357600080fd5b506101e3610452366004610fb4565b610c76565b34801561046357600080fd5b506101e3610472366004610fb4565b610de5565b61047f610e75565b6001805473ffffffffffffffffffffffffffffffffffffffff19166001600160a01b0392909216919091179055565b6104b6610e75565b6104c06000610ecf565b565b600381815481106104d257600080fd5b6000918252602090912001546001600160a01b0316905081565b600081116105415760405162461bcd60e51b815260206004820152600a60248201527f616d6f756e74203d20300000000000000000000000000000000000000000000060448201526064015b60405180910390fd5b6001600160a01b03821660009081526004602052604090205460ff166105a95760405162461bcd60e51b815260206004820152601860248201527f4163636f756e74206e6f742079657420656e726f6c6c656400000000000000006044820152606401610538565b6001600160a01b038216600090815260056020526040812080548392906105d1908490611047565b90915550600090506105e283610f2c565b6001600160a01b0384166000908152600560209081526040808320338452600101909152812060020180549293508392909190610620908490611047565b90915550506001600160a01b0383166000818152600560209081526040808320338452600190810190925282208054600160a01b7fffffffffffffffffffffff000000000000000000000000000000000000000000909116909417939093177fffffffffffffffffffff00ffffffffffffffffffffffffffffffffffffffffff1683559190910180548492906106b7908490611047565b90915550506001600160a01b0383811660009081526005602090815260408083203380855260019182019093529281902042600390910155915491517f70a082310000000000000000000000000000000000000000000000000000000081526004810191909152911690839082906370a082319060240160206040518083038186803b15801561074657600080fd5b505afa15801561075a573d6000803e3d6000fd5b505050506040513d601f19601f8201168201806040525081019061077e919061102f565b10156107f25760405162461bcd60e51b815260206004820152602660248201527f596f75206861766520696e73756666696369656e742062616c616e636520746f60448201527f207374616b6500000000000000000000000000000000000000000000000000006064820152608401610538565b6040517f23b872dd000000000000000000000000000000000000000000000000000000008152336004820152306024820152604481018490526001600160a01b038216906323b872dd906064015b602060405180830381600087803b15801561085a57600080fd5b505af115801561086e573d6000803e3d6000fd5b505050506040513d601f19601f820116820180604052508101906108929190610ff7565b5050505050565b6001600160a01b03811660009081526004602052604090205460ff16156109025760405162461bcd60e51b815260206004820152601860248201527f4163636f756e7420616c726561647920656e726f6c6c656400000000000000006044820152606401610538565b6003805460018181019092557fc2575a0e9e593c00f959f8c92f12db2869c3395a3b0502d05e2516446f71f85b0180546001600160a01b0390931673ffffffffffffffffffffffffffffffffffffffff1990931683179055600091825260046020526040909120805460ff19169091179055565b6001600160a01b0382166000908152600560209081526040808320338452600190810190925290912001546109f95760405162461bcd60e51b815260206004820152602360248201527f596f75206861766520696e73756666696369656e74207374616b652062616c616044820152626e636560e81b6064820152608401610538565b6001600160a01b038216600090815260056020526040902054610a6a5760405162461bcd60e51b815260206004820152602360248201527f596f75206861766520696e73756666696369656e74207374616b652062616c616044820152626e636560e81b6064820152608401610538565b60008111610aba5760405162461bcd60e51b815260206004820152601c60248201527f596f7520646f6e27742068617665207374616b652062616c616e6365000000006044820152606401610538565b6000610ac583610f2c565b6001600160a01b0384166000908152600560209081526040808320338452600101909152812060020180549293508392909190610b03908490611047565b90915550506001600160a01b03831660009081526005602052604081208054849290610b3090849061109e565b90915550506001600160a01b038316600090815260056020908152604080832033845260019081019092528220018054849290610b6e90849061109e565b90915550506001600160a01b038316600090815260056020908152604080832033845260019081019092529091204260038201550154610bf5576001600160a01b0383166000908152600560209081526040808320338452600101909152902080547fffffffffffffffffffffff00ffffffffffffffffffffffffffffffffffffffff1690555b60015460405163a9059cbb60e01b81526001600160a01b0385811660048301526024820185905290911690819063a9059cbb90604401610840565b6001600160a01b03811660009081526005602090815260408083203384526001019091528120600201548190610c6584610f2c565b610c6f9190611047565b9392505050565b6001600160a01b0381166000908152600560209081526040808320338452600101909152812060020154610ca983610f2c565b610cb39190611047565b905060008111610d2b5760405162461bcd60e51b815260206004820152602160248201527f596f7520646f6e742068617665206e6f207265776172647320746f20636c616960448201527f6d000000000000000000000000000000000000000000000000000000000000006064820152608401610538565b6001600160a01b03828116600081815260056020908152604080832033845260019081019092528083204260038201556002019290925554905163a9059cbb60e01b815260048101929092526024820184905290911690819063a9059cbb90604401602060405180830381600087803b158015610da757600080fd5b505af1158015610dbb573d6000803e3d6000fd5b505050506040513d601f19601f82011682018060405250810190610ddf9190610ff7565b50505050565b610ded610e75565b6001600160a01b038116610e695760405162461bcd60e51b815260206004820152602660248201527f4f776e61626c653a206e6577206f776e657220697320746865207a65726f206160448201527f64647265737300000000000000000000000000000000000000000000000000006064820152608401610538565b610e7281610ecf565b50565b6000546001600160a01b031633146104c05760405162461bcd60e51b815260206004820181905260248201527f4f776e61626c653a2063616c6c6572206973206e6f7420746865206f776e65726044820152606401610538565b600080546001600160a01b0383811673ffffffffffffffffffffffffffffffffffffffff19831681178455604051919092169283917f8be0079c531659141344cd1fd0a4f28419497f9722a3daafe3b4186f6b6457e09190a35050565b6002546001600160a01b038216600090815260056020908152604080832033845260019081019092528220908101546003909101549192610e1092909190610f74904261109e565b610f7e919061107f565b610f88919061107f565b610f92919061105f565b92915050565b80356001600160a01b0381168114610faf57600080fd5b919050565b600060208284031215610fc5578081fd5b610c6f82610f98565b60008060408385031215610fe0578081fd5b610fe983610f98565b946020939093013593505050565b600060208284031215611008578081fd5b81518015158114610c6f578182fd5b600060208284031215611028578081fd5b5035919050565b600060208284031215611040578081fd5b5051919050565b6000821982111561105a5761105a6110b5565b500190565b60008261107a57634e487b7160e01b81526012600452602481fd5b500490565b6000816000190483118215151615611099576110996110b5565b500290565b6000828210156110b0576110b06110b5565b500390565b634e487b7160e01b600052601160045260246000fdfea2646970667358221220ecdc114163f1e2a2bb99c9f2ed8ad66ec79d0f8e80987f1519fbd6ec887e6c4364736f6c63430008040033",
  "linkReferences": {},
  "deployedLinkReferences": {}
}